{
  "contractName": "Poseidon",
  "abi": [
    {
      "inputs": [],
      "stateMutability": "nonpayable",
      "type": "constructor"
    },
    {
      "anonymous": false,
      "inputs": [
        {
          "indexed": true,
          "internalType": "address",
          "name": "owner",
          "type": "address"
        },
        {
          "indexed": true,
          "internalType": "address",
          "name": "approved",
          "type": "address"
        },
        {
          "indexed": true,
          "internalType": "uint256",
          "name": "tokenId",
          "type": "uint256"
        }
      ],
      "name": "Approval",
      "type": "event"
    },
    {
      "anonymous": false,
      "inputs": [
        {
          "indexed": true,
          "internalType": "address",
          "name": "owner",
          "type": "address"
        },
        {
          "indexed": true,
          "internalType": "address",
          "name": "operator",
          "type": "address"
        },
        {
          "indexed": false,
          "internalType": "bool",
          "name": "approved",
          "type": "bool"
        }
      ],
      "name": "ApprovalForAll",
      "type": "event"
    },
    {
      "anonymous": false,
      "inputs": [
        {
          "indexed": true,
          "internalType": "address",
          "name": "from",
          "type": "address"
        },
        {
          "indexed": true,
          "internalType": "address",
          "name": "to",
          "type": "address"
        },
        {
          "indexed": true,
          "internalType": "uint256",
          "name": "tokenId",
          "type": "uint256"
        }
      ],
      "name": "Transfer",
      "type": "event"
    },
    {
      "inputs": [
        {
          "internalType": "address",
          "name": "to",
          "type": "address"
        },
        {
          "internalType": "uint256",
          "name": "tokenId",
          "type": "uint256"
        }
      ],
      "name": "approve",
      "outputs": [],
      "stateMutability": "nonpayable",
      "type": "function"
    },
    {
      "inputs": [
        {
          "internalType": "address",
          "name": "owner",
          "type": "address"
        }
      ],
      "name": "balanceOf",
      "outputs": [
        {
          "internalType": "uint256",
          "name": "",
          "type": "uint256"
        }
      ],
      "stateMutability": "view",
      "type": "function"
    },
    {
      "inputs": [
        {
          "internalType": "uint256",
          "name": "tokenId",
          "type": "uint256"
        }
      ],
      "name": "getApproved",
      "outputs": [
        {
          "internalType": "address",
          "name": "",
          "type": "address"
        }
      ],
      "stateMutability": "view",
      "type": "function"
    },
    {
      "inputs": [
        {
          "internalType": "address",
          "name": "owner",
          "type": "address"
        },
        {
          "internalType": "address",
          "name": "operator",
          "type": "address"
        }
      ],
      "name": "isApprovedForAll",
      "outputs": [
        {
          "internalType": "bool",
          "name": "",
          "type": "bool"
        }
      ],
      "stateMutability": "view",
      "type": "function"
    },
    {
      "inputs": [],
      "name": "name",
      "outputs": [
        {
          "internalType": "string",
          "name": "",
          "type": "string"
        }
      ],
      "stateMutability": "view",
      "type": "function"
    },
    {
      "inputs": [
        {
          "internalType": "uint256",
          "name": "tokenId",
          "type": "uint256"
        }
      ],
      "name": "ownerOf",
      "outputs": [
        {
          "internalType": "address",
          "name": "",
          "type": "address"
        }
      ],
      "stateMutability": "view",
      "type": "function"
    },
    {
      "inputs": [
        {
          "internalType": "address",
          "name": "from",
          "type": "address"
        },
        {
          "internalType": "address",
          "name": "to",
          "type": "address"
        },
        {
          "internalType": "uint256",
          "name": "tokenId",
          "type": "uint256"
        }
      ],
      "name": "safeTransferFrom",
      "outputs": [],
      "stateMutability": "nonpayable",
      "type": "function"
    },
    {
      "inputs": [
        {
          "internalType": "address",
          "name": "from",
          "type": "address"
        },
        {
          "internalType": "address",
          "name": "to",
          "type": "address"
        },
        {
          "internalType": "uint256",
          "name": "tokenId",
          "type": "uint256"
        },
        {
          "internalType": "bytes",
          "name": "_data",
          "type": "bytes"
        }
      ],
      "name": "safeTransferFrom",
      "outputs": [],
      "stateMutability": "nonpayable",
      "type": "function"
    },
    {
      "inputs": [
        {
          "internalType": "address",
          "name": "operator",
          "type": "address"
        },
        {
          "internalType": "bool",
          "name": "approved",
          "type": "bool"
        }
      ],
      "name": "setApprovalForAll",
      "outputs": [],
      "stateMutability": "nonpayable",
      "type": "function"
    },
    {
      "inputs": [
        {
          "internalType": "bytes4",
          "name": "interfaceId",
          "type": "bytes4"
        }
      ],
      "name": "supportsInterface",
      "outputs": [
        {
          "internalType": "bool",
          "name": "",
          "type": "bool"
        }
      ],
      "stateMutability": "view",
      "type": "function"
    },
    {
      "inputs": [],
      "name": "symbol",
      "outputs": [
        {
          "internalType": "string",
          "name": "",
          "type": "string"
        }
      ],
      "stateMutability": "view",
      "type": "function"
    },
    {
      "inputs": [
        {
          "internalType": "uint256",
          "name": "tokenId",
          "type": "uint256"
        }
      ],
      "name": "tokenURI",
      "outputs": [
        {
          "internalType": "string",
          "name": "",
          "type": "string"
        }
      ],
      "stateMutability": "view",
      "type": "function"
    },
    {
      "inputs": [
        {
          "internalType": "address",
          "name": "from",
          "type": "address"
        },
        {
          "internalType": "address",
          "name": "to",
          "type": "address"
        },
        {
          "internalType": "uint256",
          "name": "tokenId",
          "type": "uint256"
        }
      ],
      "name": "transferFrom",
      "outputs": [],
      "stateMutability": "nonpayable",
      "type": "function"
    },
    {
      "inputs": [
        {
          "internalType": "address",
          "name": "_to",
          "type": "address"
        }
      ],
      "name": "mintFish",
      "outputs": [],
      "stateMutability": "nonpayable",
      "type": "function"
    },
    {
      "inputs": [
        {
          "internalType": "uint256",
          "name": "_predator",
          "type": "uint256"
        },
        {
          "internalType": "uint256",
          "name": "_prey",
          "type": "uint256"
        }
      ],
      "name": "hunt",
      "outputs": [],
      "stateMutability": "nonpayable",
      "type": "function"
    }
  ],
  "bytecode": "0x60806040523480156200001157600080fd5b506040518060400160405280600881526020017f506f736569646f6e0000000000000000000000000000000000000000000000008152506040518060400160405280600481526020017f4151554100000000000000000000000000000000000000000000000000000000815250816000908051906020019062000096929190620000b8565b508060019080519060200190620000af929190620000b8565b505050620001cd565b828054620000c69062000168565b90600052602060002090601f016020900481019282620000ea576000855562000136565b82601f106200010557805160ff191683800117855562000136565b8280016001018555821562000136579182015b828111156200013557825182559160200191906001019062000118565b5b50905062000145919062000149565b5090565b5b80821115620001645760008160009055506001016200014a565b5090565b600060028204905060018216806200018157607f821691505b602082108114156200019857620001976200019e565b5b50919050565b7f4e487b7100000000000000000000000000000000000000000000000000000000600052602260045260246000fd5b612c4080620001dd6000396000f3fe608060405234801561001057600080fd5b50600436106100f55760003560e01c806342842e0e11610097578063a22cb46511610066578063a22cb46514610282578063b88d4fde1461029e578063c87b56dd146102ba578063e985e9c5146102ea576100f5565b806342842e0e146101e85780636352211e1461020457806370a082311461023457806395d89b4114610264576100f5565b80630884105a116100d35780630884105a14610178578063095ea7b314610194578063165e0dc6146101b057806323b872dd146101cc576100f5565b806301ffc9a7146100fa57806306fdde031461012a578063081812fc14610148575b600080fd5b610114600480360381019061010f9190611c36565b61031a565b60405161012191906120ab565b60405180910390f35b6101326103fc565b60405161013f91906120c6565b60405180910390f35b610162600480360381019061015d9190611c90565b61048e565b60405161016f9190612044565b60405180910390f35b610192600480360381019061018d9190611a73565b610513565b005b6101ae60048036038101906101a99190611bf6565b6105f8565b005b6101ca60048036038101906101c59190611cbd565b610710565b005b6101e660048036038101906101e19190611ae0565b610854565b005b61020260048036038101906101fd9190611ae0565b6108b4565b005b61021e60048036038101906102199190611c90565b6108d4565b60405161022b9190612044565b60405180910390f35b61024e60048036038101906102499190611a73565b610986565b60405161025b9190612308565b60405180910390f35b61026c610a3e565b60405161027991906120c6565b60405180910390f35b61029c60048036038101906102979190611bb6565b610ad0565b005b6102b860048036038101906102b39190611b33565b610c51565b005b6102d460048036038101906102cf9190611c90565b610cb3565b6040516102e191906120c6565b60405180910390f35b61030460048036038101906102ff9190611aa0565b610d5a565b60405161031191906120ab565b60405180910390f35b60007f80ac58cd000000000000000000000000000000000000000000000000000000007bffffffffffffffffffffffffffffffffffffffffffffffffffffffff1916827bffffffffffffffffffffffffffffffffffffffffffffffffffffffff191614806103e557507f5b5e139f000000000000000000000000000000000000000000000000000000007bffffffffffffffffffffffffffffffffffffffffffffffffffffffff1916827bffffffffffffffffffffffffffffffffffffffffffffffffffffffff1916145b806103f557506103f482610dee565b5b9050919050565b60606000805461040b9061253b565b80601f01602080910402602001604051908101604052809291908181526020018280546104379061253b565b80156104845780601f1061045957610100808354040283529160200191610484565b820191906000526020600020905b81548152906001019060200180831161046757829003601f168201915b5050505050905090565b600061049982610e58565b6104d8576040517f08c379a00000000000000000000000000000000000000000000000000000000081526004016104cf90612248565b60405180910390fd5b6004600083815260200190815260200160002060009054906101000a900473ffffffffffffffffffffffffffffffffffffffff169050919050565b61271061ffff16600660009054906101000a900461ffff1661ffff161061056f576040517f08c379a000000000000000000000000000000000000000000000000000000000815260040161056690612128565b60405180910390fd5b61058d81600660009054906101000a900461ffff1661ffff16610ec4565b600160076000600660009054906101000a900461ffff1661ffff168152602001908152602001600020819055506006600081819054906101000a900461ffff16809291906105da9061259e565b91906101000a81548161ffff021916908361ffff1602179055505050565b6000610603826108d4565b90508073ffffffffffffffffffffffffffffffffffffffff168373ffffffffffffffffffffffffffffffffffffffff161415610674576040517f08c379a000000000000000000000000000000000000000000000000000000000815260040161066b906122c8565b60405180910390fd5b8073ffffffffffffffffffffffffffffffffffffffff16610693610ee2565b73ffffffffffffffffffffffffffffffffffffffff1614806106c257506106c1816106bc610ee2565b610d5a565b5b610701576040517f08c379a00000000000000000000000000000000000000000000000000000000081526004016106f8906121c8565b60405180910390fd5b61070b8383610eea565b505050565b610718610ee2565b73ffffffffffffffffffffffffffffffffffffffff16610737836108d4565b73ffffffffffffffffffffffffffffffffffffffff161461078d576040517f08c379a000000000000000000000000000000000000000000000000000000000815260040161078490612188565b60405180910390fd5b610795610ee2565b73ffffffffffffffffffffffffffffffffffffffff166107b4826108d4565b73ffffffffffffffffffffffffffffffffffffffff161461080a576040517f08c379a000000000000000000000000000000000000000000000000000000000815260040161080190612288565b60405180910390fd5b61081381610fa3565b600760008281526020019081526020016000205460076000848152602001908152602001600020600082825461084991906123bc565b925050819055505050565b61086561085f610ee2565b826110b4565b6108a4576040517f08c379a000000000000000000000000000000000000000000000000000000000815260040161089b906122e8565b60405180910390fd5b6108af838383611192565b505050565b6108cf83838360405180602001604052806000815250610c51565b505050565b6000806002600084815260200190815260200160002060009054906101000a900473ffffffffffffffffffffffffffffffffffffffff169050600073ffffffffffffffffffffffffffffffffffffffff168173ffffffffffffffffffffffffffffffffffffffff16141561097d576040517f08c379a000000000000000000000000000000000000000000000000000000000815260040161097490612208565b60405180910390fd5b80915050919050565b60008073ffffffffffffffffffffffffffffffffffffffff168273ffffffffffffffffffffffffffffffffffffffff1614156109f7576040517f08c379a00000000000000000000000000000000000000000000000000000000081526004016109ee906121e8565b60405180910390fd5b600360008373ffffffffffffffffffffffffffffffffffffffff1673ffffffffffffffffffffffffffffffffffffffff168152602001908152602001600020549050919050565b606060018054610a4d9061253b565b80601f0160208091040260200160405190810160405280929190818152602001828054610a799061253b565b8015610ac65780601f10610a9b57610100808354040283529160200191610ac6565b820191906000526020600020905b815481529060010190602001808311610aa957829003601f168201915b5050505050905090565b610ad8610ee2565b73ffffffffffffffffffffffffffffffffffffffff168273ffffffffffffffffffffffffffffffffffffffff161415610b46576040517f08c379a0000000000000000000000000000000000000000000000000000000008152600401610b3d90612168565b60405180910390fd5b8060056000610b53610ee2565b73ffffffffffffffffffffffffffffffffffffffff1673ffffffffffffffffffffffffffffffffffffffff16815260200190815260200160002060008473ffffffffffffffffffffffffffffffffffffffff1673ffffffffffffffffffffffffffffffffffffffff16815260200190815260200160002060006101000a81548160ff0219169083151502179055508173ffffffffffffffffffffffffffffffffffffffff16610c00610ee2565b73ffffffffffffffffffffffffffffffffffffffff167f17307eab39ab6107e8899845ad3d59bd9653f200f220920489ca2b5937696c3183604051610c4591906120ab565b60405180910390a35050565b610c62610c5c610ee2565b836110b4565b610ca1576040517f08c379a0000000000000000000000000000000000000000000000000000000008152600401610c98906122e8565b60405180910390fd5b610cad848484846113ee565b50505050565b6060610cbe82610e58565b610cfd576040517f08c379a0000000000000000000000000000000000000000000000000000000008152600401610cf4906122a8565b60405180910390fd5b6000610d0761144a565b90506000815111610d275760405180602001604052806000815250610d52565b80610d3184611461565b604051602001610d42929190612020565b6040516020818303038152906040525b915050919050565b6000600560008473ffffffffffffffffffffffffffffffffffffffff1673ffffffffffffffffffffffffffffffffffffffff16815260200190815260200160002060008373ffffffffffffffffffffffffffffffffffffffff1673ffffffffffffffffffffffffffffffffffffffff16815260200190815260200160002060009054906101000a900460ff16905092915050565b60007f01ffc9a7000000000000000000000000000000000000000000000000000000007bffffffffffffffffffffffffffffffffffffffffffffffffffffffff1916827bffffffffffffffffffffffffffffffffffffffffffffffffffffffff1916149050919050565b60008073ffffffffffffffffffffffffffffffffffffffff166002600084815260200190815260200160002060009054906101000a900473ffffffffffffffffffffffffffffffffffffffff1673ffffffffffffffffffffffffffffffffffffffff1614159050919050565b610ede8282604051806020016040528060008152506115c2565b5050565b600033905090565b816004600083815260200190815260200160002060006101000a81548173ffffffffffffffffffffffffffffffffffffffff021916908373ffffffffffffffffffffffffffffffffffffffff160217905550808273ffffffffffffffffffffffffffffffffffffffff16610f5d836108d4565b73ffffffffffffffffffffffffffffffffffffffff167f8c5be1e5ebec7d5bd14f71427d1e84f3dd0314c0f7b2291e5b200ac8c7c3b92560405160405180910390a45050565b6000610fae826108d4565b9050610fbc8160008461161d565b610fc7600083610eea565b6001600360008373ffffffffffffffffffffffffffffffffffffffff1673ffffffffffffffffffffffffffffffffffffffff16815260200190815260200160002060008282546110179190612443565b925050819055506002600083815260200190815260200160002060006101000a81549073ffffffffffffffffffffffffffffffffffffffff021916905581600073ffffffffffffffffffffffffffffffffffffffff168273ffffffffffffffffffffffffffffffffffffffff167fddf252ad1be2c89b69c2b068fc378daa952ba7f163c4a11628f55a4df523b3ef60405160405180910390a45050565b60006110bf82610e58565b6110fe576040517f08c379a00000000000000000000000000000000000000000000000000000000081526004016110f5906121a8565b60405180910390fd5b6000611109836108d4565b90508073ffffffffffffffffffffffffffffffffffffffff168473ffffffffffffffffffffffffffffffffffffffff16148061117857508373ffffffffffffffffffffffffffffffffffffffff166111608461048e565b73ffffffffffffffffffffffffffffffffffffffff16145b8061118957506111888185610d5a565b5b91505092915050565b8273ffffffffffffffffffffffffffffffffffffffff166111b2826108d4565b73ffffffffffffffffffffffffffffffffffffffff1614611208576040517f08c379a00000000000000000000000000000000000000000000000000000000081526004016111ff90612268565b60405180910390fd5b600073ffffffffffffffffffffffffffffffffffffffff168273ffffffffffffffffffffffffffffffffffffffff161415611278576040517f08c379a000000000000000000000000000000000000000000000000000000000815260040161126f90612148565b60405180910390fd5b61128383838361161d565b61128e600082610eea565b6001600360008573ffffffffffffffffffffffffffffffffffffffff1673ffffffffffffffffffffffffffffffffffffffff16815260200190815260200160002060008282546112de9190612443565b925050819055506001600360008473ffffffffffffffffffffffffffffffffffffffff1673ffffffffffffffffffffffffffffffffffffffff168152602001908152602001600020600082825461133591906123bc565b92505081905550816002600083815260200190815260200160002060006101000a81548173ffffffffffffffffffffffffffffffffffffffff021916908373ffffffffffffffffffffffffffffffffffffffff160217905550808273ffffffffffffffffffffffffffffffffffffffff168473ffffffffffffffffffffffffffffffffffffffff167fddf252ad1be2c89b69c2b068fc378daa952ba7f163c4a11628f55a4df523b3ef60405160405180910390a4505050565b6113f9848484611192565b61140584848484611622565b611444576040517f08c379a000000000000000000000000000000000000000000000000000000000815260040161143b906120e8565b60405180910390fd5b50505050565b606060405180602001604052806000815250905090565b606060008214156114a9576040518060400160405280600181526020017f300000000000000000000000000000000000000000000000000000000000000081525090506115bd565b600082905060005b600082146114db5780806114c4906125c9565b915050600a826114d49190612412565b91506114b1565b60008167ffffffffffffffff8111156114f7576114f66126ff565b5b6040519080825280601f01601f1916602001820160405280156115295781602001600182028036833780820191505090505b5090505b600085146115b6576001826115429190612443565b9150600a856115519190612612565b603061155d91906123bc565b60f81b818381518110611573576115726126d0565b5b60200101907effffffffffffffffffffffffffffffffffffffffffffffffffffffffffffff1916908160001a905350600a856115af9190612412565b945061152d565b8093505050505b919050565b6115cc83836117b9565b6115d96000848484611622565b611618576040517f08c379a000000000000000000000000000000000000000000000000000000000815260040161160f906120e8565b60405180910390fd5b505050565b505050565b60006116438473ffffffffffffffffffffffffffffffffffffffff16611987565b156117ac578373ffffffffffffffffffffffffffffffffffffffff1663150b7a0261166c610ee2565b8786866040518563ffffffff1660e01b815260040161168e949392919061205f565b602060405180830381600087803b1580156116a857600080fd5b505af19250505080156116d957506040513d601f19601f820116820180604052508101906116d69190611c63565b60015b61175c573d8060008114611709576040519150601f19603f3d011682016040523d82523d6000602084013e61170e565b606091505b50600081511415611754576040517f08c379a000000000000000000000000000000000000000000000000000000000815260040161174b906120e8565b60405180910390fd5b805181602001fd5b63150b7a0260e01b7bffffffffffffffffffffffffffffffffffffffffffffffffffffffff1916817bffffffffffffffffffffffffffffffffffffffffffffffffffffffff1916149150506117b1565b600190505b949350505050565b600073ffffffffffffffffffffffffffffffffffffffff168273ffffffffffffffffffffffffffffffffffffffff161415611829576040517f08c379a000000000000000000000000000000000000000000000000000000000815260040161182090612228565b60405180910390fd5b61183281610e58565b15611872576040517f08c379a000000000000000000000000000000000000000000000000000000000815260040161186990612108565b60405180910390fd5b61187e6000838361161d565b6001600360008473ffffffffffffffffffffffffffffffffffffffff1673ffffffffffffffffffffffffffffffffffffffff16815260200190815260200160002060008282546118ce91906123bc565b92505081905550816002600083815260200190815260200160002060006101000a81548173ffffffffffffffffffffffffffffffffffffffff021916908373ffffffffffffffffffffffffffffffffffffffff160217905550808273ffffffffffffffffffffffffffffffffffffffff16600073ffffffffffffffffffffffffffffffffffffffff167fddf252ad1be2c89b69c2b068fc378daa952ba7f163c4a11628f55a4df523b3ef60405160405180910390a45050565b600080823b905060008111915050919050565b60006119ad6119a884612348565b612323565b9050828152602081018484840111156119c9576119c8612733565b5b6119d48482856124f9565b509392505050565b6000813590506119eb81612bae565b92915050565b600081359050611a0081612bc5565b92915050565b600081359050611a1581612bdc565b92915050565b600081519050611a2a81612bdc565b92915050565b600082601f830112611a4557611a4461272e565b5b8135611a5584826020860161199a565b91505092915050565b600081359050611a6d81612bf3565b92915050565b600060208284031215611a8957611a8861273d565b5b6000611a97848285016119dc565b91505092915050565b60008060408385031215611ab757611ab661273d565b5b6000611ac5858286016119dc565b9250506020611ad6858286016119dc565b9150509250929050565b600080600060608486031215611af957611af861273d565b5b6000611b07868287016119dc565b9350506020611b18868287016119dc565b9250506040611b2986828701611a5e565b9150509250925092565b60008060008060808587031215611b4d57611b4c61273d565b5b6000611b5b878288016119dc565b9450506020611b6c878288016119dc565b9350506040611b7d87828801611a5e565b925050606085013567ffffffffffffffff811115611b9e57611b9d612738565b5b611baa87828801611a30565b91505092959194509250565b60008060408385031215611bcd57611bcc61273d565b5b6000611bdb858286016119dc565b9250506020611bec858286016119f1565b9150509250929050565b60008060408385031215611c0d57611c0c61273d565b5b6000611c1b858286016119dc565b9250506020611c2c85828601611a5e565b9150509250929050565b600060208284031215611c4c57611c4b61273d565b5b6000611c5a84828501611a06565b91505092915050565b600060208284031215611c7957611c7861273d565b5b6000611c8784828501611a1b565b91505092915050565b600060208284031215611ca657611ca561273d565b5b6000611cb484828501611a5e565b91505092915050565b60008060408385031215611cd457611cd361273d565b5b6000611ce285828601611a5e565b9250506020611cf385828601611a5e565b9150509250929050565b611d0681612477565b82525050565b611d1581612489565b82525050565b6000611d2682612379565b611d30818561238f565b9350611d40818560208601612508565b611d4981612742565b840191505092915050565b6000611d5f82612384565b611d6981856123a0565b9350611d79818560208601612508565b611d8281612742565b840191505092915050565b6000611d9882612384565b611da281856123b1565b9350611db2818560208601612508565b80840191505092915050565b6000611dcb6032836123a0565b9150611dd682612753565b604082019050919050565b6000611dee601c836123a0565b9150611df9826127a2565b602082019050919050565b6000611e116018836123a0565b9150611e1c826127cb565b602082019050919050565b6000611e346024836123a0565b9150611e3f826127f4565b604082019050919050565b6000611e576019836123a0565b9150611e6282612843565b602082019050919050565b6000611e7a601e836123a0565b9150611e858261286c565b602082019050919050565b6000611e9d602c836123a0565b9150611ea882612895565b604082019050919050565b6000611ec06038836123a0565b9150611ecb826128e4565b604082019050919050565b6000611ee3602a836123a0565b9150611eee82612933565b604082019050919050565b6000611f066029836123a0565b9150611f1182612982565b604082019050919050565b6000611f296020836123a0565b9150611f34826129d1565b602082019050919050565b6000611f4c602c836123a0565b9150611f57826129fa565b604082019050919050565b6000611f6f6029836123a0565b9150611f7a82612a49565b604082019050919050565b6000611f92601a836123a0565b9150611f9d82612a98565b602082019050919050565b6000611fb5602f836123a0565b9150611fc082612ac1565b604082019050919050565b6000611fd86021836123a0565b9150611fe382612b10565b604082019050919050565b6000611ffb6031836123a0565b915061200682612b5f565b604082019050919050565b61201a816124ef565b82525050565b600061202c8285611d8d565b91506120388284611d8d565b91508190509392505050565b60006020820190506120596000830184611cfd565b92915050565b60006080820190506120746000830187611cfd565b6120816020830186611cfd565b61208e6040830185612011565b81810360608301526120a08184611d1b565b905095945050505050565b60006020820190506120c06000830184611d0c565b92915050565b600060208201905081810360008301526120e08184611d54565b905092915050565b6000602082019050818103600083015261210181611dbe565b9050919050565b6000602082019050818103600083015261212181611de1565b9050919050565b6000602082019050818103600083015261214181611e04565b9050919050565b6000602082019050818103600083015261216181611e27565b9050919050565b6000602082019050818103600083015261218181611e4a565b9050919050565b600060208201905081810360008301526121a181611e6d565b9050919050565b600060208201905081810360008301526121c181611e90565b9050919050565b600060208201905081810360008301526121e181611eb3565b9050919050565b6000602082019050818103600083015261220181611ed6565b9050919050565b6000602082019050818103600083015261222181611ef9565b9050919050565b6000602082019050818103600083015261224181611f1c565b9050919050565b6000602082019050818103600083015261226181611f3f565b9050919050565b6000602082019050818103600083015261228181611f62565b9050919050565b600060208201905081810360008301526122a181611f85565b9050919050565b600060208201905081810360008301526122c181611fa8565b9050919050565b600060208201905081810360008301526122e181611fcb565b9050919050565b6000602082019050818103600083015261230181611fee565b9050919050565b600060208201905061231d6000830184612011565b92915050565b600061232d61233e565b9050612339828261256d565b919050565b6000604051905090565b600067ffffffffffffffff821115612363576123626126ff565b5b61236c82612742565b9050602081019050919050565b600081519050919050565b600081519050919050565b600082825260208201905092915050565b600082825260208201905092915050565b600081905092915050565b60006123c7826124ef565b91506123d2836124ef565b9250827fffffffffffffffffffffffffffffffffffffffffffffffffffffffffffffffff0382111561240757612406612643565b5b828201905092915050565b600061241d826124ef565b9150612428836124ef565b92508261243857612437612672565b5b828204905092915050565b600061244e826124ef565b9150612459836124ef565b92508282101561246c5761246b612643565b5b828203905092915050565b6000612482826124cf565b9050919050565b60008115159050919050565b60007fffffffff0000000000000000000000000000000000000000000000000000000082169050919050565b600061ffff82169050919050565b600073ffffffffffffffffffffffffffffffffffffffff82169050919050565b6000819050919050565b82818337600083830152505050565b60005b8381101561252657808201518184015260208101905061250b565b83811115612535576000848401525b50505050565b6000600282049050600182168061255357607f821691505b60208210811415612567576125666126a1565b5b50919050565b61257682612742565b810181811067ffffffffffffffff82111715612595576125946126ff565b5b80604052505050565b60006125a9826124c1565b915061ffff8214156125be576125bd612643565b5b600182019050919050565b60006125d4826124ef565b91507fffffffffffffffffffffffffffffffffffffffffffffffffffffffffffffffff82141561260757612606612643565b5b600182019050919050565b600061261d826124ef565b9150612628836124ef565b92508261263857612637612672565b5b828206905092915050565b7f4e487b7100000000000000000000000000000000000000000000000000000000600052601160045260246000fd5b7f4e487b7100000000000000000000000000000000000000000000000000000000600052601260045260246000fd5b7f4e487b7100000000000000000000000000000000000000000000000000000000600052602260045260246000fd5b7f4e487b7100000000000000000000000000000000000000000000000000000000600052603260045260246000fd5b7f4e487b7100000000000000000000000000000000000000000000000000000000600052604160045260246000fd5b600080fd5b600080fd5b600080fd5b600080fd5b6000601f19601f8301169050919050565b7f4552433732313a207472616e7366657220746f206e6f6e20455243373231526560008201527f63656976657220696d706c656d656e7465720000000000000000000000000000602082015250565b7f4552433732313a20746f6b656e20616c7265616479206d696e74656400000000600082015250565b7f416c6c206669736820686173206265656e206d696e7465640000000000000000600082015250565b7f4552433732313a207472616e7366657220746f20746865207a65726f2061646460008201527f7265737300000000000000000000000000000000000000000000000000000000602082015250565b7f4552433732313a20617070726f766520746f2063616c6c657200000000000000600082015250565b7f43616c6c6572206d757374206f776e207072656461746f7220746f6b656e0000600082015250565b7f4552433732313a206f70657261746f7220717565727920666f72206e6f6e657860008201527f697374656e7420746f6b656e0000000000000000000000000000000000000000602082015250565b7f4552433732313a20617070726f76652063616c6c6572206973206e6f74206f7760008201527f6e6572206e6f7220617070726f76656420666f7220616c6c0000000000000000602082015250565b7f4552433732313a2062616c616e636520717565727920666f7220746865207a6560008201527f726f206164647265737300000000000000000000000000000000000000000000602082015250565b7f4552433732313a206f776e657220717565727920666f72206e6f6e657869737460008201527f656e7420746f6b656e0000000000000000000000000000000000000000000000602082015250565b7f4552433732313a206d696e7420746f20746865207a65726f2061646472657373600082015250565b7f4552433732313a20617070726f76656420717565727920666f72206e6f6e657860008201527f697374656e7420746f6b656e0000000000000000000000000000000000000000602082015250565b7f4552433732313a207472616e73666572206f6620746f6b656e2074686174206960008201527f73206e6f74206f776e0000000000000000000000000000000000000000000000602082015250565b7f43616c6c6572206d757374206f776e207072657920746f6b656e000000000000600082015250565b7f4552433732314d657461646174613a2055524920717565727920666f72206e6f60008201527f6e6578697374656e7420746f6b656e0000000000000000000000000000000000602082015250565b7f4552433732313a20617070726f76616c20746f2063757272656e74206f776e6560008201527f7200000000000000000000000000000000000000000000000000000000000000602082015250565b7f4552433732313a207472616e736665722063616c6c6572206973206e6f74206f60008201527f776e6572206e6f7220617070726f766564000000000000000000000000000000602082015250565b612bb781612477565b8114612bc257600080fd5b50565b612bce81612489565b8114612bd957600080fd5b50565b612be581612495565b8114612bf057600080fd5b50565b612bfc816124ef565b8114612c0757600080fd5b5056fea2646970667358221220ac89791ac3f788bfbe95ea1f00185626f7b02ecf2fa92b97de13b8af9869910364736f6c63430008060033",
  "immutableReferences": {},
  "source": "pragma solidity 0.8.6;\n\nimport \"@openzeppelin/contracts/token/ERC721/ERC721.sol\";\nimport \"@openzeppelin/contracts/utils/Counters.sol\";\nimport \"@openzeppelin/contracts/utils/Context.sol\";\n\n// TODO change to TradeableERC721Token from Opensea?\ncontract Poseidon is ERC721 {\n    uint16 constant _mintMax = 10000;\n    uint16 private _mintCounter;\n\n    // Mapping from token ID to its power\n    mapping(uint256 => uint256) private _power;\n\n    // Create the array that each token has a number\n    constructor() ERC721(\"Poseidon\", \"AQUA\") {}\n\n    // Mints a token with power 1, its called in the constructor\n    // TODO make it ownable?\n    function mintFish(address _to) public {\n        require(_mintCounter < _mintMax, \"All fish has been minted\");\n        _safeMint(_to, _mintCounter);\n        // _setTokenURI(_tokenId, _tokenURI);\n        _power[_mintCounter] = 1;\n        _mintCounter++;\n    }\n\n    // Hunt will burn the _prey token and add the _prey power to _predator\n    function hunt(uint256 _predator, uint256 _prey) public {\n        require(ownerOf(_predator) == _msgSender(), \"Caller must own predator token\");\n        require(ownerOf(_prey) == _msgSender(), \"Caller must own prey token\");\n        _burn(_prey);\n        _power[_predator] += _power[_prey];\n    }\n}\n",
  "sourcePath": "/home/atik/go/src/github.com/amper-lab/poseidon/contracts/Poseidon.sol",
  "compiler": {
    "name": "solc",
    "version": "0.8.6+commit.11564f7e.Emscripten.clang"
  },
  "schemaVersion": "3.4.3",
  "updatedAt": "2021-09-28T10:11:20.014Z",
  "devdoc": {
    "kind": "dev",
    "methods": {
      "approve(address,uint256)": {
        "details": "See {IERC721-approve}."
      },
      "balanceOf(address)": {
        "details": "See {IERC721-balanceOf}."
      },
      "getApproved(uint256)": {
        "details": "See {IERC721-getApproved}."
      },
      "isApprovedForAll(address,address)": {
        "details": "See {IERC721-isApprovedForAll}."
      },
      "name()": {
        "details": "See {IERC721Metadata-name}."
      },
      "ownerOf(uint256)": {
        "details": "See {IERC721-ownerOf}."
      },
      "safeTransferFrom(address,address,uint256)": {
        "details": "See {IERC721-safeTransferFrom}."
      },
      "safeTransferFrom(address,address,uint256,bytes)": {
        "details": "See {IERC721-safeTransferFrom}."
      },
      "setApprovalForAll(address,bool)": {
        "details": "See {IERC721-setApprovalForAll}."
      },
      "supportsInterface(bytes4)": {
        "details": "See {IERC165-supportsInterface}."
      },
      "symbol()": {
        "details": "See {IERC721Metadata-symbol}."
      },
      "tokenURI(uint256)": {
        "details": "See {IERC721Metadata-tokenURI}."
      },
      "transferFrom(address,address,uint256)": {
        "details": "See {IERC721-transferFrom}."
      }
    },
    "version": 1
  },
  "userdoc": {
    "kind": "user",
    "methods": {},
    "version": 1
  }
}